:1000000019C028C027C026C025C024C023C022C0D4
:1000100021C020C01FC01EC01DC0FBC01BC01AC015
:1000200019C018C017C016C015C014C013C012C024
:1000300011C010C011241FBECFEFCDBFDFE3DEBF64
:100040002FE3A0E8BFE301C01D92A538B207E1F796
:1000500008D145C3D5CF809318088091150886FF35
:10006000FCCF08951F93CF93DF93E82FEE0F880FF7
:10007000880F880FCE2FC80F80E0EDDF80E0EBDF28
:1000800080E0E9DF80E0E7DFDAE0DC0F11E01C0F61
:10009000EC2FF0E0EE51F9478081DDDFC12F1D1319
:1000A000F5CFDF91CF911F9108958093170880912C
:1000B0001508807CE1F30895CF93C82F88E7F5DF1A
:1000C00080E0C9DF82E2C7DF8C2FC5DF81E08C0FC3
:1000D000C2DF80E0C0DF80E1BEDF8C2F806BBBDF42
:1000E00083E080931408CF910895CF93DF93C82FB6
:1000F000D62F88E7DADF80E4AEDF80E0CA3018F080
:100100008F5FCA50FBCF882349F0ACDF8C2FAADF6A
:1001100083E080931408DF91CF9108958D2FF5CF60
:100120000F931F93CF93DF938C0188E7BEDF80E4AA
:1001300092DFD0E0C5E0C150D0F0EC2FF0E0EE0F40
:10014000FF1FEC54F8472081318180E0021713072C
:1001500028F08F5F021B130BD1E0F8CFC11101C053
:10016000DF5FDD2311F07EDFE6CF82E1FCCF83E0AD
:1001700080931408DF91CF911F910F9108950F93F1
:100180001F93CF93DF938C0188E78FDF80E463DFD9
:10019000E80189918F3F11F065DFFBCF83E0809309
:1001A0001408DF91CF911F910F910895CF9384DFB1
:1001B00088E77BDF80E44FDFC0E080E04CDFC150A8
:1001C000E1F783E080931408CF910895CF93C82F6F
:1001D00080E86BDF8C2F3FDF81E867DF80911508B7
:1001E00087FFFCCF8091180892E09093140890E06C
:1001F000982F88272091150827FFFCCF20911808F9
:1002000034E03093140833E030931408822BCF91FC
:1002100008951F920F920FB60F9211248F939F9300
:10022000AF93BF9381E08093460A8091803F909185
:10023000813FA091823FB091833F0196A11DB11DE6
:100240008093803F9093813FA093823FB093833F00
:10025000BF91AF919F918F910F900FBE0F901F9004
:100260001895CF93DF93CDB7DEB76497CDBFDEBFD0
:1002700088ED97E084BF909361000F9A079A229AC5
:10028000239A8091160488608093160410921608B1
:1002900081E0809313088093150880E806DF80E0F2
:1002A000DADE87E2D8DE8FEFD6DE23E02093140873
:1002B00080E8FBDE85E0CFDE80E1CDDE80E0CBDED6
:1002C00033E03093140888E7F0DE80E0C4DE8EEB84
:1002D00097E889839A8307EC17E8A981BA818D9101
:1002E000A983BA83B8DEE981FA810E171F07A9F73F
:1002F00083E08093140887EE93E080934C0A9093F8
:100300004D0A81E08093400A8093450A7894809159
:100310001104886080931104809112048860809396
:10032000120480E043DF82E041DF1C8A1B8A1982CD
:100330001A821B821C82812C912C5401C12CD12C3D
:100340007601412C512C320182E040DF9695879551
:100350009C012C7F298B3A8B84E038DF1C0197FFAE
:1003600002C0312C212CF8948091803F9091813FE4
:10037000A091823FB091833F89879A87AB87BC87E2
:10038000789488199909AA09BB094C015D018981F2
:100390009A81AB81BC81880D991DAA1DBB1D8983E3
:1003A0009A83AB83BC83BC01CD0128EE33E040E0EF
:1003B00050E05DD1890129893A89D1017AD16D87CF
:1003C0007E878F87988B28EE33E040E050E04FD156
:1003D0002D833E834F835887A50194016D817E81D3
:1003E0008F81988521D120E13EE040E050E03FD16F
:1003F000420E531E641E751ED101A501940165D1E4
:1004000020E13EE040E050E032D1C20ED31EE41EB7
:10041000F51E11997FC09B89911125C08091843F61
:100420008F5F853080F48093843F8091843F823059
:1004300009F468C058F4882391F0813009F45EC053
:1004400031E03B8B10C01092843FEFCF833009F432
:100450005DC08430A9F72B9821E02B8B04C00F9A44
:100460002A98A1E0AB8B129957C08C8981110EC0DC
:1004700091E09C8B10E000E019821A821B821C82A2
:10048000C12CD12C7601412C512C320180E014DE9C
:1004900088EF97E874DEE091843FF0E0ED50F84794
:1004A00062E1808122DE169939C08BEE97E867DE23
:1004B00089899A8935DE80EF97E861DE82E0FCDD8C
:1004C000C8018C7099278430910509F475C048F5EE
:1004D000892B09F454C08AEC97E851DEC10120DE73
:1004E00087EC97E84CDEA3EDB0E31197F1F700C07D
:1004F000000089849A84AB84BC8426CF0F98B1E035
:10050000BB8BB1CF2B9AE1E0EB8BADCF2A9AF1E018
:10051000FB8BA9CF1B8AA7CF1C8AB8CF86EE97E8A2
:10052000C6CF8830910509F463C00C97A1F6C801C5
:1005300060E17EE088D0262F5C0160E0822FD5DD6F
:1005400088E7B3DD80E487DD81E18CDD33E0309343
:100550001408C5016CE370E076D0962F182F60E088
:10056000892FC3DD88E7A1DD80E475DD81E17ADDD7
:1005700083E08093140860E0812FB7DDACCF8D81DC
:100580009E81AF81B8850097A140B10578F06D8557
:100590007E858F85988920E432E44FE050E067D073
:1005A000C901BEDD82EE97E8EADD95CF8D819E819F
:1005B000B7DD8EED97E8F8CFC301B20141145104C5
:1005C000F1E06F06710450F020E432E44FE050E0B7
:1005D0004ED0C901A5DD8AED97E8E6CF28EE33E0DD
:1005E00040E050E044D0C9019BDD86ED97E8DCCFC8
:1005F000C701B601C114D10421E0E206F10450F0B4
:1006000020E432E44FE050E032D0C90189DD82EDD0
:1006100097E8CACF28EE33E040E050E028D0C90187
:100620007FDD8EEC97E8C0CFDB018F939F934DD099
:10063000BF91AF91A29F800D911DA39F900DB29F7E
:10064000900D11240895AA1BBB1B51E107C0AA1FDE
:10065000BB1FA617B70710F0A61BB70B881F991F63
:100660005A95A9F780959095BC01CD010895A1E216
:100670001A2EAA1BBB1BFD010DC0AA1FBB1FEE1F1C
:10068000FF1FA217B307E407F50720F0A21BB30B67
:10069000E40BF50B661F771F881F991F1A9469F7E3
:1006A00060957095809590959B01AC01BD01CF013F
:1006B0000895A29FB001B39FC001A39F01D0B29F34
:1006C000700D811D1124911D0895F3DFA59F900DDC
:1006D000B49F900DA49F800D911D11240895F8944E
:0206E000FFCF4A
:1006E2007C1F0220022002207C1F0000000000006C
:1006F20000007C1F001F8220822082207C000000DC
:100702008220822082207C1F7C008000800080006A
:100712007C1F7C00822082208220001F7C1F82207E
:1007220082208220001F7C000200020002007C1F47
:100732007C1F8220822082207C1F7C0082208220DB
:1007420082207C1F7C3F8200820082007C3F7C03EF
:10075200000C0030000C7C037C1F0020003F0020B6
:100762007C1F7C3F800080008000003F003F8000B3
:10077200803F8000003F7C1F822082208220000078
:10078200020002007E3F0200020000003006300636
:1007920000000000000000000000000000003E3EDB
:1007A2007239E23C72393E3E6000800100068001EF
:1007B200600001000A006400E8031027A81F20015E
:1007C200DA028D14AF0E0AFF121212FF0E0A0DFF8B
:1007D2000A0D12FF0E0C0DFF0C0D12FF0E0C12FF74
:1007E2000C1212FF0B121312FF0B121412FF0E0B3C
:0C07F200FF05090C0F14050F101112FF79
:00000001FF
